:100000000C94FC000C9426010C9426010C942601FF
:100010000C9426010C9426010C9426010C942601C4
:100020000C9426010C9426010C9426010C942601B4
:100030000C9426010C9426010C9426010C942601A4
:100040000C9426010C9426010C9426010C94260194
:100050000C9426010C9426010C9426010C94540156
:100060000C9426010C94F0030C94E0040C942601EB
:100070000C9426010C9426010C9426010C94260164
:100080000C9426010C9426010C9426010C94260154
:100090000C9424040C941F050C9426010C94440821
:1000A0000C9426010C9426010C9426010C94260134
:1000B0000C9426010C9426010C9426010C94260124
:1000C0000C9426010C9426010C9426010C945804DF
:1000D0000C945E050C9426010C948C040C949D05E4
:1000E0000C9426018A098D0980098409C4099109A3
:1000F00095099B099F09A309A909AD09B109C4097B
:10010000B709BB09BF090000090A02080B0C0D075B
:1001100006030401000000000000000000000000D1
:1001200000000000000000000000000000000000CF
:10013000000011100F00000000000000000000008F
:10014000000000000000000000000000010210207C
:1001500020080810204010204080020102010804FD
:100160000201010204081020408080402010080491
:1001700002018004020180402010080402010804EA
:10018000020101020408102040800102040810202E
:100190004080050505050705080808080202020257
:1001A0000A0A080804040404010101010101010113
:1001B0000303030303030303040707070C0C0C0CDE
:1001C0000C0C0C0C020202020606060606060606C7
:1001D0000B0B0B0B0B0B0B0B000022002500280058
:1001E0002B002E003100340002010000050108013F
:1001F0000B0150016406F90711241FBECFEFD1E2B5
:10020000DEBFCDBF12E0A0E0B2E0EAE4F4E100E03E
:100210000BBF02C007900D92AC32B107D9F725E0B1
:10022000ACE2B2E001C01D92AE39B207E1F710E0D6
:10023000CCEFD0E004C02197FE010E941A0AC93F0A
:10024000D107C9F70E942F030C94F5090C94000004
:1002500040E052EC61E070E08DE992E00E94DC0544
:1002600068EE73E080E090E00C94C30160E072E01F
:100270008DE992E00E94A3028CE292E00E943C078A
:1002800068EE73E080E090E00E94C3018CE292E0AF
:100290000E944C0768EE73E080E090E00C94C3018C
:1002A0008CE292E00C9436071F920F920FB60F92D9
:1002B00011242F933F938F939F93AF93BF9380917C
:1002C0002F0290913002A0913102B0913202309110
:1002D0002E0223E0230F2D3720F40196A11DB11D1E
:1002E00005C026E8230F0296A11DB11D20932E0202
:1002F00080932F0290933002A0933102B093320288
:100300008091330290913402A0913502B09136026F
:100310000196A11DB11D8093330290933402A093E6
:100320003502B0933602BF91AF919F918F913F916B
:100330002F910F900FBE0F901F9018953FB7F89414
:100340008091330290913402A0913502B09136022F
:1003500026B5A89B05C02F3F19F00196A11DB11D20
:100360003FBFBA2FA92F982F8827820F911DA11D5B
:10037000B11DBC01CD0142E0660F771F881F991F98
:100380004A95D1F70895CF92DF92EF92FF92CF93E3
:10039000DF936B017C010E949E01EB01C114D1042B
:1003A000E104F10479F00E949E016C1B7D0B683E14
:1003B0007340A0F381E0C81AD108E108F108C851E0
:1003C000DC4FECCFDF91CF91FF90EF90DF90CF909B
:1003D0000895789484B5826084BD84B5816084BDBD
:1003E00085B5826085BD85B5816085BDEEE6F0E0AE
:1003F000808181608083E1E8F0E01082808182600A
:100400008083808181608083E0E8F0E0808181608A
:100410008083E1EBF0E0808184608083E0EBF0E0BA
:10042000808181608083E1E9F0E080818260808367
:10043000808181608083E0E9F0E080818160808359
:10044000E1EAF0E080818260808380818160808346
:10045000E0EAF0E0808181608083E1E2F1E0808188
:1004600082608083808181608083E0E2F1E080812E
:1004700081608083EAE7F0E080818460808380810E
:1004800082608083808181608083808180688083B6
:100490001092C1000895CF92DF92EF92FF920F93D6
:1004A0001F93CF93DF936C01EB017B01E40EF51EEC
:1004B00000E010E0CE15DF0561F06991D601ED9105
:1004C000FC910190F081E02DC6010995080F191FDC
:1004D000F1CFC801DF91CF911F910F91FF90EF9065
:1004E000DF90CF9008956115710579F0FB010190BF
:1004F0000020E9F73197AF01461B570BDC01ED9166
:10050000FC910280F381E02D099480E090E0089551
:10051000DC01ED91FC910190F081E02D09940F93A5
:100520001F93CF93DF93EC016DE00E9488028C0152
:100530006AE0CE010E948802800F911FDF91CF9167
:100540001F910F9108950F931F93CF93DF93EC01A9
:100550000E9473028C01CE010E948F02800F911FB6
:10056000DF91CF911F910F9108958F929F92AF923B
:10057000BF92CF92DF92EF92FF920F931F93CF9390
:10058000DF93CDB7DEB7A1970FB6F894DEBF0FBEED
:10059000CDBF6C01142FE52FCB01022F19A2223001
:1005A00008F40AE07E0121E2E20EF11C802E912C7B
:1005B000A12CB12C612F7E2FA50194010E94F80976
:1005C000029F1019112481E0E81AF1081A3014F47E
:1005D000105D01C0195CF7011083122FE32FCA01CF
:1005E000232B242B252B31F7B701C6010E94730260
:1005F000A1960FB6F894DEBF0FBECDBFDF91CF91AD
:100600001F910F91FF90EF90DF90CF90BF90AF9030
:100610009F908F9008952115310541F4DC01ED91F3
:10062000FC910190F081E02D642F09940C94B502A7
:100630000F931F93CF93DF93EC019A01462F50E065
:1006400060E070E00E940B038C01CE010E948F02DB
:10065000800F911FDF91CF911F910F9108950E94FC
:10066000E9010E942801CFEBD4E00E9436012097D7
:10067000E1F30E94BF04F9CFFC0124853585F9011F
:10068000E05CFF4F80819181329620813181821B15
:10069000930B8F7399270895DC011C96ED91FC91C3
:1006A0001D97DF01A05CBF4F2D913C9111971296D1
:1006B0008D919C9111972817390739F08D919C9154
:1006C000E80FF91F808190E008958FEF9FEF089564
:1006D000FC01A485B585FD01E05CFF4F20813181DF
:1006E0003296808191812817390779F08081918134
:1006F000A80FB91F8C91208131812F5F3F4F2F733D
:1007000033273183208390E008958FEF9FEF089582
:10071000FC0181A1882329F0A489B5898C9186FFE9
:10072000FBCF11A208950F931F93CF93DF93FC018A
:10073000A685B7858D01005C1F4FE80188819981EE
:1007400001968F739927AD014E5B5F4FEA012881B7
:10075000398182179307D1F3E80128813981A20FEB
:10076000B31F6C93A685B785A05CBF4F11969C9371
:100770008E93A689B7892C9181E090E0078C02C006
:10078000880F991F0A94E2F7822B8C9381E081A352
:100790000488F589E02D80818064808381E090E089
:1007A000DF91CF911F910F910895FB01E05CFF4F06
:1007B000208131812F5F3F4F2F733327DB01AE5BE9
:1007C000BF4F4D915C912417350741F04081518115
:1007D000DB01A40FB51F8C93318320830895089506
:1007E0001F920F920FB60F9211240BB60F922F93F8
:1007F0003F934F935F936F937F938F939F93AF93A9
:10080000BF93EF93FF938091C00082FD07C080915A
:10081000C6006BE974E00E94D50302C08091C60057
:10082000FF91EF91BF91AF919F918F917F916F91C8
:100830005F914F913F912F910F900BBE0F900FBE84
:100840000F901F90189508951F920F920FB60F9258
:1008500011240BB60F922F933F934F935F936F9397
:100860007F938F939F93AF93BF93EF93FF93809169
:10087000C80082FD07C08091CE0063E174E00E9451
:10088000D50302C08091CE00FF91EF91BF91AF914F
:100890009F918F917F916F915F914F913F912F9198
:1008A0000F900BBE0F900FBE0F901F9018950895DC
:1008B0001F920F920FB60F9211240BB60F922F9327
:1008C0003F934F935F936F937F938F939F93AF93D8
:1008D000BF93EF93FF938091D00082FD07C080917A
:1008E000D6006BE873E00E94D50302C08091D60069
:1008F000FF91EF91BF91AF919F918F917F916F91F8
:100900005F914F913F912F910F900BBE0F900FBEB3
:100910000F901F90189508951F920F920FB60F9287
:1009200011240BB60F922F933F934F935F936F93C6
:100930007F938F939F93AF93BF93EF93FF93809198
:10094000300182FD07C08091360163E073E00E94B0
:10095000D50302C080913601FF91EF91BF91AF9115
:100960009F918F917F916F915F914F913F912F91C7
:100970000F900BBE0F900FBE0F901F9018958DE932
:1009800092E00E943C03892B11F00E94EF038BE759
:1009900092E00E943C03892B11F00E94230489E518
:1009A00092E00E943C03892B11F00E94570487E3D8
:1009B00092E00E943C03892B11F00C948B04089563
:1009C0001F920F920FB60F9211240BB60F922F9316
:1009D0003F938F939F93EF93FF93209197043091D0
:1009E00098048091990490919A042817390731F45A
:1009F0008091C1008F7D8093C10014C0E091990463
:100A0000F0919A04E95AFB4F2081809199049091CA
:100A10009A0401968F73992790939A04809399046E
:100A20002093C600FF91EF919F918F913F912F915D
:100A30000F900BBE0F900FBE0F901F9018951F9236
:100A40000F920FB60F9211240BB60F922F933F9374
:100A50008F939F93EF93FF9320910F043091100495
:100A600080911104909112042817390731F4809174
:100A7000C9008F7D8093C90014C0E0911104F091EA
:100A80001204E153FC4F20818091110490911204D3
:100A900001968F73992790931204809311042093E9
:100AA000CE00FF91EF919F918F913F912F910F90E9
:100AB0000BBE0F900FBE0F901F9018951F920F92B4
:100AC0000FB60F9211240BB60F922F933F938F9373
:100AD0009F93EF93FF932091870330918803809138
:100AE000890390918A032817390731F48091D10046
:100AF0008F7D8093D10014C0E0918903F0918A0327
:100B0000E95BFC4F20818091890390918A030196D3
:100B10008F73992790938A03809389032093D6003B
:100B2000FF91EF919F918F913F912F910F900BBE6D
:100B30000F900FBE0F901F9018951F920F920FB637
:100B40000F9211240BB60F922F933F938F939F9385
:100B5000EF93FF932091FF023091000380910103F6
:100B6000909102032817390731F4809131018F7D6C
:100B70008093310114C0E0910103F0910203E1542C
:100B8000FD4F2081809101039091020301968F73A4
:100B90009927909302038093010320933601FF91DC
:100BA000EF919F918F913F912F910F900BBE0F90DE
:100BB0000FBE0F901F901895CF92DF92EF92FF9289
:100BC0000F931F93CF93DF93EC016A017B014115D3
:100BD000514E6105710509F1EC89FD8981E090E0D4
:100BE00008A002C0880F991F0A94E2F7808360E092
:100BF00079E08DE390E0A70196010E94F809890150
:100C00009A01015011092109310936952795179547
:100C10000795980101151041A8F0EC89FD89108213
:100C200060E874E88EE190E0A70196010E94F8095F
:100C3000DA01C9010197A109B109B695A795979560
:100C400087959C01E889F9893083EA89FB892083AB
:100C500019A2EE89FF89408181E090E09C010C8C13
:100C600002C0220F331F0A94E2F7242B2083EE895F
:100C7000FF8940819C010D8C02C0220F331F0A9412
:100C8000E2F7242B2083EE89FF8940819C010E8CA2
:100C900002C0220F331F0A94E2F7242B2083EE892F
:100CA000FF8920810F8C02C0880F991F0A94E2F7F8
:100CB000809582238083DF91CF911F910F91FF90C8
:100CC000EF90DF90CF900895CF92DF92EF92FF9256
:100CD000EDE9F2E01382128288EEC82E83E0D82E6E
:100CE000E12CF12CC482D582E682F78260E172E0C9
:100CF000718360838BE994E09587848787E594E02E
:100D00009787868785EC90E0918B808B84EC90E0D0
:100D1000938B828B80EC90E0958B848B81EC90E0C0
:100D2000978B868B82EC90E0918F808F86EC90E0A1
:100D3000938F828F44E0448F33E0358F27E0268FF6
:100D400095E0978F81E080A3EBE7F2E013821282B7
:100D5000C482D582E682F78271836083A3E1B4E026
:100D6000B587A487AFECB3E0B787A687ADECB0E05A
:100D7000B18BA08BACECB0E0B38BA28BA8ECB0E055
:100D8000B58BA48BA9ECB0E0B78BA68BAAECB0E036
:100D9000B18FA08FAEECB0E0B38FA28F448F358FB0
:100DA000268F978F80A3E9E5F2E013821282C48236
:100DB000D582E682F78271836083ABE8B3E0B587C2
:100DC000A487A7E4B3E0B787A687A5EDB0E0B18B11
:100DD000A08BA4EDB0E0B38BA28BA0EDB0E0B58BFF
:100DE000A48BA1EDB0E0B78BA68BA2EDB0E0B18FE4
:100DF000A08FA6EDB0E0B38FA28F448F358F268FE2
:100E0000978F80A3E7E3F2E013821282C482D58237
:100E1000E682F7827183608363E073E0758764879D
:100E20006FEB72E07787668765E371E0718B608BAB
:100E300064E371E0738B628B60E371E0758B648BAC
:100E400061E371E0778B668B62E371E0718F608F95
:100E500066E371E0738F628F448F358F268F978F93
:100E600080A3FF90EF90DF90CF90089522E0FC01E7
:100E7000208323E021830895CF93DF93EC018FED4E
:100E800094E00E94EF074AE050E068818DE992E02B
:100E9000DF91CF910C9418034AE050E0FC0161818E
:100EA0008DE992E00C94180380910E0590E020915A
:100EB0000F05821B9109089590910F0580910E05F1
:100EC000981750F4E92FF0E0E05FFA4F208130E00E
:100ED0009F5F90930F0502C02FEF3FEFC901089568
:100EE000E0910F0580910E05E81730F4F0E0E05F27
:100EF000FA4F808190E008958FEF9FEF0895089555
:100F0000CF92DF92EF92FF920F931F93CF93DF93D5
:100F10007C01262F972F8A018091EB04882391F082
:100F2000C62FD72F6E01C40ED51ECC15DD0571F06E
:100F30006991D701ED91FC910190F081E02DC701FD
:100F40000995F3CF642F822F0E941B08C801DF91FF
:100F5000CF911F910F91FF90EF90DF90CF90089568
:100F6000CF93DF931F92CDB7DEB769832091EB0457
:100F70002223D1F02091EC04203240F021E030E037
:100F8000FC013383228380E090E015C08091ED0462
:100F9000E82FF0E0E251FB4F998190838F5F8093BF
:100FA000ED048093EC0405C061E0CE0101960E943F
:100FB0001B0881E090E00F90DF91CF910895FC0134
:100FC0001382128288EE93E0A0E0B0E084839583E0
:100FD000A683B78380E292E0918380830895109284
:100FE0000F0510920E051092ED041092EC040C9473
:100FF000FD078FED94E00C94DF0710929D0581E0D2
:1010000080939B0510929A0561E084E10E94C509D6
:1010100061E085E10E94C509E9EBF0E080818E7F07
:10102000808380818D7F808388E48093B80085E40D
:101030008093BC000895613298F420919D0524307E
:1010400089F460935205FC0124E535E0D9018A2F2B
:10105000821B861718F481918D93F9CF80E0089553
:1010600081E0089582E0089585ED8093BC00809131
:10107000BC0084FDFCCF10929D05089585EC809303
:10108000BC0010929D0508951F920F920FB60F920B
:1010900011240BB60F922F933F934F935F936F934F
:1010A0007F938F939F93AF93BF93EF93FF93809121
:1010B000B900887F803609F49CC068F5883209F44D
:1010C0005BC090F4803109F454C038F4882309F4EB
:1010D000F5C0883009F44DC0F5C0883109F44CC022
:1010E000803209F45DC0EEC0803409F468C048F471
:1010F000803309F455C0883309F0E4C0809330058B
:10110000A8C0803509F44FC0883509F45DC0883423
:1011100009F0D8C0D5C0883909F4C6C0A8F488370A
:1011200009F467C038F4883609F463C0803709F4DD
:1011300060C0C8C0883809F4B7C0803909F45FC0FE
:10114000803809F0BFC05BC0803B09F485C038F42B
:10115000803A09F466C0883A09F47EC0B3C0803C86
:1011600009F4A6C0883C09F4A3C0883B09F489C0EF
:10117000A9C080919C0510C090917505809174055F
:10118000981770F5E091750581E08E0F80937505D5
:10119000F0E0EA58FA4F80818093BB0085EC85C06F
:1011A000809330058DC0E091750581E08E0F8093AE
:1011B00075058091BB00F0E0EA58FA4F808390916A
:1011C0007505809174056DC0E091750581E08E0F05
:1011D000809375058091BB00F0E0EA58FA4F808358
:1011E00080919B0581116CC081E080939A0584EA0F
:1011F00060C083E080939D0510923105CFCF809130
:101200003105803208F050C0E091310581E08E0F49
:10121000809331058091BB00F0E0EE5CFA4F808353
:10122000BDCF80913105803230F4E0913105F0E09E
:10123000EE5CFA4F10820E9434086091310570E034
:10124000E0919605F091970582E395E0099510925B
:1012500031050E943E0836C084E080939D051092BF
:10126000530510925205E0919805F0919905099562
:1012700080915205811105C081E080935205109242
:101280005405E091530581E08E0F80935305F0E003
:10129000EC5AFA4F80818093BB0090915305809166
:1012A0005205981708F47ACF85E88093BC000AC0ED
:1012B00085EC8093BC0010929D0504C0109230050F
:1012C0000E943408FF91EF91BF91AF919F918F9150
:1012D0007F916F915F914F913F912F910F900BBE36
:1012E0000F900FBE0F901F90189590E0FC01319762
:1012F000E131F10508F048C0EE58FF4F0C941A0A8E
:10130000809180008F7703C0809180008F7D8093D3
:101310008000089584B58F7702C084B58F7D84BD29
:1013200008958091B0008F7703C08091B0008F7DC9
:101330008093B0000895809190008F7707C08091CE
:1013400090008F7D03C080919000877F80939000F4
:1013500008958091A0008F7707C08091A0008F7DB5
:1013600003C08091A000877F8093A00008958091A2
:1013700020018F7707C0809120018F7D03C080916D
:101380002001877F8093200108951F93CF93DF93DF
:10139000282F30E0F901EA5FFE4F8491F901E45B08
:1013A000FE4FD491F901EE56FE4FC491CC23C9F003
:1013B000162F81110E947509EC2FF0E0EE0FFF1F30
:1013C000E852FE4FA591B4918FB7F894111105C062
:1013D0009C91ED2FE095E92302C0EC91ED2BEC936D
:1013E0008FBFDF91CF911F910895F8940C94230A39
:1013F000A1E21A2EAA1BBB1BFD010DC0AA1FBB1F19
:10140000EE1FFF1FA217B307E407F50720F0A21B8A
:10141000B30BE40BF50B661F771F881F991F1A94F7
:1014200069F760957095809590959B01AC01BD0121
:10143000CF010895EE0FFF1F0024001C0BBE079084
:0A144000F691E02D0994F894FFCF17
:10144A0048656C6C6F20776F726C64000000000056
:10145A0093034B023C0368034C038803000000001B
:0C146A00B007800754075C0770077F077D
:00000001FF
